{
  "_format": "hh-sol-artifact-1",
  "contractName": "DiplomaRegistry",
  "sourceName": "contracts/ItContract.sol",
  "abi": [
    {
      "inputs": [
        {
          "internalType": "address",
          "name": "student",
          "type": "address"
        },
        {
          "internalType": "string",
          "name": "name",
          "type": "string"
        },
        {
          "internalType": "string",
          "name": "university",
          "type": "string"
        },
        {
          "internalType": "string",
          "name": "year",
          "type": "string"
        }
      ],
      "name": "addDiploma",
      "outputs": [],
      "stateMutability": "nonpayable",
      "type": "function"
    },
    {
      "inputs": [
        {
          "internalType": "address",
          "name": "",
          "type": "address"
        }
      ],
      "name": "diplomas",
      "outputs": [
        {
          "internalType": "string",
          "name": "name",
          "type": "string"
        },
        {
          "internalType": "string",
          "name": "university",
          "type": "string"
        },
        {
          "internalType": "string",
          "name": "year",
          "type": "string"
        }
      ],
      "stateMutability": "view",
      "type": "function"
    },
    {
      "inputs": [
        {
          "internalType": "address",
          "name": "student",
          "type": "address"
        }
      ],
      "name": "getDiploma",
      "outputs": [
        {
          "internalType": "string",
          "name": "",
          "type": "string"
        },
        {
          "internalType": "string",
          "name": "",
          "type": "string"
        },
        {
          "internalType": "string",
          "name": "",
          "type": "string"
        }
      ],
      "stateMutability": "view",
      "type": "function"
    }
  ],
  "bytecode": "0x6080604052348015600f57600080fd5b50610bda8061001f6000396000f3fe608060405234801561001057600080fd5b50600436106100415760003560e01c80631275088c14610046578063391bd41114610078578063529f615f14610094575b600080fd5b610060600480360381019061005b91906105c3565b6100c6565b60405161006f93929190610680565b60405180910390f35b610092600480360381019061008d9190610801565b6102eb565b005b6100ae60048036038101906100a991906105c3565b61038f565b6040516100bd93929190610680565b60405180910390f35b606080606060008060008673ffffffffffffffffffffffffffffffffffffffff1673ffffffffffffffffffffffffffffffffffffffff168152602001908152602001600020604051806060016040529081600082018054610126906108eb565b80601f0160208091040260200160405190810160405280929190818152602001828054610152906108eb565b801561019f5780601f106101745761010080835404028352916020019161019f565b820191906000526020600020905b81548152906001019060200180831161018257829003601f168201915b505050505081526020016001820180546101b8906108eb565b80601f01602080910402602001604051908101604052809291908181526020018280546101e4906108eb565b80156102315780601f1061020657610100808354040283529160200191610231565b820191906000526020600020905b81548152906001019060200180831161021457829003601f168201915b5050505050815260200160028201805461024a906108eb565b80601f0160208091040260200160405190810160405280929190818152602001828054610276906108eb565b80156102c35780601f10610298576101008083540402835291602001916102c3565b820191906000526020600020905b8154815290600101906020018083116102a657829003601f168201915b5050505050815250509050806000015181602001518260400151935093509350509193909250565b6040518060600160405280848152602001838152602001828152506000808673ffffffffffffffffffffffffffffffffffffffff1673ffffffffffffffffffffffffffffffffffffffff16815260200190815260200160002060008201518160000190816103599190610ad2565b50602082015181600101908161036f9190610ad2565b5060408201518160020190816103859190610ad2565b5090505050505050565b60006020528060005260406000206000915090508060000180546103b2906108eb565b80601f01602080910402602001604051908101604052809291908181526020018280546103de906108eb565b801561042b5780601f106104005761010080835404028352916020019161042b565b820191906000526020600020905b81548152906001019060200180831161040e57829003601f168201915b505050505090806001018054610440906108eb565b80601f016020809104026020016040519081016040528092919081815260200182805461046c906108eb565b80156104b95780601f1061048e576101008083540402835291602001916104b9565b820191906000526020600020905b81548152906001019060200180831161049c57829003601f168201915b5050505050908060020180546104ce906108eb565b80601f01602080910402602001604051908101604052809291908181526020018280546104fa906108eb565b80156105475780601f1061051c57610100808354040283529160200191610547565b820191906000526020600020905b81548152906001019060200180831161052a57829003601f168201915b5050505050905083565b6000604051905090565b600080fd5b600080fd5b600073ffffffffffffffffffffffffffffffffffffffff82169050919050565b600061059082610565565b9050919050565b6105a081610585565b81146105ab57600080fd5b50565b6000813590506105bd81610597565b92915050565b6000602082840312156105d9576105d861055b565b5b60006105e7848285016105ae565b91505092915050565b600081519050919050565b600082825260208201905092915050565b60005b8381101561062a57808201518184015260208101905061060f565b60008484015250505050565b6000601f19601f8301169050919050565b6000610652826105f0565b61065c81856105fb565b935061066c81856020860161060c565b61067581610636565b840191505092915050565b6000606082019050818103600083015261069a8186610647565b905081810360208301526106ae8185610647565b905081810360408301526106c28184610647565b9050949350505050565b600080fd5b600080fd5b7f4e487b7100000000000000000000000000000000000000000000000000000000600052604160045260246000fd5b61070e82610636565b810181811067ffffffffffffffff8211171561072d5761072c6106d6565b5b80604052505050565b6000610740610551565b905061074c8282610705565b919050565b600067ffffffffffffffff82111561076c5761076b6106d6565b5b61077582610636565b9050602081019050919050565b82818337600083830152505050565b60006107a461079f84610751565b610736565b9050828152602081018484840111156107c0576107bf6106d1565b5b6107cb848285610782565b509392505050565b600082601f8301126107e8576107e76106cc565b5b81356107f8848260208601610791565b91505092915050565b6000806000806080858703121561081b5761081a61055b565b5b6000610829878288016105ae565b945050602085013567ffffffffffffffff81111561084a57610849610560565b5b610856878288016107d3565b935050604085013567ffffffffffffffff81111561087757610876610560565b5b610883878288016107d3565b925050606085013567ffffffffffffffff8111156108a4576108a3610560565b5b6108b0878288016107d3565b91505092959194509250565b7f4e487b7100000000000000000000000000000000000000000000000000000000600052602260045260246000fd5b6000600282049050600182168061090357607f821691505b602082108103610916576109156108bc565b5b50919050565b60008190508160005260206000209050919050565b60006020601f8301049050919050565b600082821b905092915050565b60006008830261097e7fffffffffffffffffffffffffffffffffffffffffffffffffffffffffffffffff82610941565b6109888683610941565b95508019841693508086168417925050509392505050565b6000819050919050565b6000819050919050565b60006109cf6109ca6109c5846109a0565b6109aa565b6109a0565b9050919050565b6000819050919050565b6109e9836109b4565b6109fd6109f5826109d6565b84845461094e565b825550505050565b600090565b610a12610a05565b610a1d8184846109e0565b505050565b5b81811015610a4157610a36600082610a0a565b600181019050610a23565b5050565b601f821115610a8657610a578161091c565b610a6084610931565b81016020851015610a6f578190505b610a83610a7b85610931565b830182610a22565b50505b505050565b600082821c905092915050565b6000610aa960001984600802610a8b565b1980831691505092915050565b6000610ac28383610a98565b9150826002028217905092915050565b610adb826105f0565b67ffffffffffffffff811115610af457610af36106d6565b5b610afe82546108eb565b610b09828285610a45565b600060209050601f831160018114610b3c5760008415610b2a578287015190505b610b348582610ab6565b865550610b9c565b601f198416610b4a8661091c565b60005b82811015610b7257848901518255600182019150602085019450602081019050610b4d565b86831015610b8f5784890151610b8b601f891682610a98565b8355505b6001600288020188555050505b50505050505056fea26469706673582212202b8018891708546cbb8d8980780dc37dfda4f02c44befda893bb35645a38de1e64736f6c634300081c0033",
  "linkReferences": {},
  "deployedLinkReferences": {}
}