{
  "_format": "hh-sol-artifact-1",
  "contractName": "ItContract",
  "sourceName": "contracts/ItContract.sol",
  "abi": [
    {
      "inputs": [
        {
          "internalType": "uint256",
          "name": "_initialSupply",
          "type": "uint256"
        }
      ],
      "stateMutability": "nonpayable",
      "type": "constructor"
    },
    {
      "anonymous": false,
      "inputs": [
        {
          "indexed": true,
          "internalType": "address",
          "name": "from",
          "type": "address"
        },
        {
          "indexed": true,
          "internalType": "address",
          "name": "to",
          "type": "address"
        },
        {
          "indexed": false,
          "internalType": "uint256",
          "name": "value",
          "type": "uint256"
        }
      ],
      "name": "Transfer",
      "type": "event"
    },
    {
      "inputs": [
        {
          "internalType": "address",
          "name": "",
          "type": "address"
        }
      ],
      "name": "balanceOf",
      "outputs": [
        {
          "internalType": "uint256",
          "name": "",
          "type": "uint256"
        }
      ],
      "stateMutability": "view",
      "type": "function"
    },
    {
      "inputs": [],
      "name": "decimals",
      "outputs": [
        {
          "internalType": "uint8",
          "name": "",
          "type": "uint8"
        }
      ],
      "stateMutability": "view",
      "type": "function"
    },
    {
      "inputs": [],
      "name": "name",
      "outputs": [
        {
          "internalType": "string",
          "name": "",
          "type": "string"
        }
      ],
      "stateMutability": "view",
      "type": "function"
    },
    {
      "inputs": [],
      "name": "symbol",
      "outputs": [
        {
          "internalType": "string",
          "name": "",
          "type": "string"
        }
      ],
      "stateMutability": "view",
      "type": "function"
    },
    {
      "inputs": [],
      "name": "totalSupply",
      "outputs": [
        {
          "internalType": "uint256",
          "name": "",
          "type": "uint256"
        }
      ],
      "stateMutability": "view",
      "type": "function"
    },
    {
      "inputs": [
        {
          "internalType": "address",
          "name": "_to",
          "type": "address"
        },
        {
          "internalType": "uint256",
          "name": "_value",
          "type": "uint256"
        }
      ],
      "name": "transferTokens",
      "outputs": [
        {
          "internalType": "bool",
          "name": "success",
          "type": "bool"
        }
      ],
      "stateMutability": "nonpayable",
      "type": "function"
    }
  ],
  "bytecode": "0x60806040526040518060400160405280600681526020017f54696d4d6f7600000000000000000000000000000000000000000000000000008152506000908161004891906103a4565b506040518060400160405280600281526020017f544d0000000000000000000000000000000000000000000000000000000000008152506001908161008d91906103a4565b506012600260006101000a81548160ff021916908360ff1602179055503480156100b657600080fd5b50604051610ee5380380610ee583398181016040528101906100d891906104a7565b600260009054906101000a900460ff1660ff16600a6100f79190610636565b816101029190610681565b600381905550600354600460003373ffffffffffffffffffffffffffffffffffffffff1673ffffffffffffffffffffffffffffffffffffffff16815260200190815260200160002081905550506106c3565b600081519050919050565b7f4e487b7100000000000000000000000000000000000000000000000000000000600052604160045260246000fd5b7f4e487b7100000000000000000000000000000000000000000000000000000000600052602260045260246000fd5b600060028204905060018216806101d557607f821691505b6020821081036101e8576101e761018e565b5b50919050565b60008190508160005260206000209050919050565b60006020601f8301049050919050565b600082821b905092915050565b6000600883026102507fffffffffffffffffffffffffffffffffffffffffffffffffffffffffffffffff82610213565b61025a8683610213565b95508019841693508086168417925050509392505050565b6000819050919050565b6000819050919050565b60006102a161029c61029784610272565b61027c565b610272565b9050919050565b6000819050919050565b6102bb83610286565b6102cf6102c7826102a8565b848454610220565b825550505050565b600090565b6102e46102d7565b6102ef8184846102b2565b505050565b5b81811015610313576103086000826102dc565b6001810190506102f5565b5050565b601f82111561035857610329816101ee565b61033284610203565b81016020851015610341578190505b61035561034d85610203565b8301826102f4565b50505b505050565b600082821c905092915050565b600061037b6000198460080261035d565b1980831691505092915050565b6000610394838361036a565b9150826002028217905092915050565b6103ad82610154565b67ffffffffffffffff8111156103c6576103c561015f565b5b6103d082546101bd565b6103db828285610317565b600060209050601f83116001811461040e57600084156103fc578287015190505b6104068582610388565b86555061046e565b601f19841661041c866101ee565b60005b828110156104445784890151825560018201915060208501945060208101905061041f565b86831015610461578489015161045d601f89168261036a565b8355505b6001600288020188555050505b505050505050565b600080fd5b61048481610272565b811461048f57600080fd5b50565b6000815190506104a18161047b565b92915050565b6000602082840312156104bd576104bc610476565b5b60006104cb84828501610492565b91505092915050565b7f4e487b7100000000000000000000000000000000000000000000000000000000600052601160045260246000fd5b60008160011c9050919050565b6000808291508390505b600185111561055a57808604811115610536576105356104d4565b5b60018516156105455780820291505b808102905061055385610503565b945061051a565b94509492505050565b600082610573576001905061062f565b81610581576000905061062f565b816001811461059757600281146105a1576105d0565b600191505061062f565b60ff8411156105b3576105b26104d4565b5b8360020a9150848211156105ca576105c96104d4565b5b5061062f565b5060208310610133831016604e8410600b84101617156106055782820a905083811115610600576105ff6104d4565b5b61062f565b6106128484846001610510565b92509050818404811115610629576106286104d4565b5b81810290505b9392505050565b600061064182610272565b915061064c83610272565b92506106797fffffffffffffffffffffffffffffffffffffffffffffffffffffffffffffffff8484610563565b905092915050565b600061068c82610272565b915061069783610272565b92508282026106a581610272565b915082820484148315176106bc576106bb6104d4565b5b5092915050565b610813806106d26000396000f3fe608060405234801561001057600080fd5b50600436106100625760003560e01c806306fdde031461006757806318160ddd14610085578063313ce567146100a357806370a08231146100c157806395d89b41146100f1578063bec3fa171461010f575b600080fd5b61006f61013f565b60405161007c91906104bb565b60405180910390f35b61008d6101cd565b60405161009a91906104f6565b60405180910390f35b6100ab6101d3565b6040516100b8919061052d565b60405180910390f35b6100db60048036038101906100d691906105ab565b6101e6565b6040516100e891906104f6565b60405180910390f35b6100f96101fe565b60405161010691906104bb565b60405180910390f35b61012960048036038101906101249190610604565b61028c565b604051610136919061065f565b60405180910390f35b6000805461014c906106a9565b80601f0160208091040260200160405190810160405280929190818152602001828054610178906106a9565b80156101c55780601f1061019a576101008083540402835291602001916101c5565b820191906000526020600020905b8154815290600101906020018083116101a857829003601f168201915b505050505081565b60035481565b600260009054906101000a900460ff1681565b60046020528060005260406000206000915090505481565b6001805461020b906106a9565b80601f0160208091040260200160405190810160405280929190818152602001828054610237906106a9565b80156102845780601f1061025957610100808354040283529160200191610284565b820191906000526020600020905b81548152906001019060200180831161026757829003601f168201915b505050505081565b600081600460003373ffffffffffffffffffffffffffffffffffffffff1673ffffffffffffffffffffffffffffffffffffffff168152602001908152602001600020541015610310576040517f08c379a000000000000000000000000000000000000000000000000000000000815260040161030790610726565b60405180910390fd5b81600460003373ffffffffffffffffffffffffffffffffffffffff1673ffffffffffffffffffffffffffffffffffffffff168152602001908152602001600020600082825461035f9190610775565b9250508190555081600460008573ffffffffffffffffffffffffffffffffffffffff1673ffffffffffffffffffffffffffffffffffffffff16815260200190815260200160002060008282546103b591906107a9565b925050819055508273ffffffffffffffffffffffffffffffffffffffff163373ffffffffffffffffffffffffffffffffffffffff167fddf252ad1be2c89b69c2b068fc378daa952ba7f163c4a11628f55a4df523b3ef8460405161041991906104f6565b60405180910390a36001905092915050565b600081519050919050565b600082825260208201905092915050565b60005b8381101561046557808201518184015260208101905061044a565b60008484015250505050565b6000601f19601f8301169050919050565b600061048d8261042b565b6104978185610436565b93506104a7818560208601610447565b6104b081610471565b840191505092915050565b600060208201905081810360008301526104d58184610482565b905092915050565b6000819050919050565b6104f0816104dd565b82525050565b600060208201905061050b60008301846104e7565b92915050565b600060ff82169050919050565b61052781610511565b82525050565b6000602082019050610542600083018461051e565b92915050565b600080fd5b600073ffffffffffffffffffffffffffffffffffffffff82169050919050565b60006105788261054d565b9050919050565b6105888161056d565b811461059357600080fd5b50565b6000813590506105a58161057f565b92915050565b6000602082840312156105c1576105c0610548565b5b60006105cf84828501610596565b91505092915050565b6105e1816104dd565b81146105ec57600080fd5b50565b6000813590506105fe816105d8565b92915050565b6000806040838503121561061b5761061a610548565b5b600061062985828601610596565b925050602061063a858286016105ef565b9150509250929050565b60008115159050919050565b61065981610644565b82525050565b60006020820190506106746000830184610650565b92915050565b7f4e487b7100000000000000000000000000000000000000000000000000000000600052602260045260246000fd5b600060028204905060018216806106c157607f821691505b6020821081036106d4576106d361067a565b5b50919050565b7f496e73756666696369656e742062616c616e6365000000000000000000000000600082015250565b6000610710601483610436565b915061071b826106da565b602082019050919050565b6000602082019050818103600083015261073f81610703565b9050919050565b7f4e487b7100000000000000000000000000000000000000000000000000000000600052601160045260246000fd5b6000610780826104dd565b915061078b836104dd565b92508282039050818111156107a3576107a2610746565b5b92915050565b60006107b4826104dd565b91506107bf836104dd565b92508282019050808211156107d7576107d6610746565b5b9291505056fea2646970667358221220996283f578608ad57cb3e228817e7c6a0091208359ba10265d310b7612d990ea64736f6c634300081c0033",
  "linkReferences": {},
  "deployedLinkReferences": {}
}