{
  "_format": "hh-sol-artifact-1",
  "contractName": "ItContract",
  "sourceName": "contracts/ItContract.sol",
  "abi": [
    {
      "inputs": [
        {
          "internalType": "address",
          "name": "_owner",
          "type": "address"
        },
        {
          "internalType": "string",
          "name": "_studentName",
          "type": "string"
        },
        {
          "internalType": "string",
          "name": "_universityName",
          "type": "string"
        },
        {
          "internalType": "string",
          "name": "_year",
          "type": "string"
        }
      ],
      "name": "addDiploma",
      "outputs": [],
      "stateMutability": "nonpayable",
      "type": "function"
    },
    {
      "inputs": [
        {
          "internalType": "uint256",
          "name": "",
          "type": "uint256"
        }
      ],
      "name": "diplomas",
      "outputs": [
        {
          "internalType": "address",
          "name": "owner",
          "type": "address"
        },
        {
          "internalType": "string",
          "name": "studentName",
          "type": "string"
        },
        {
          "internalType": "string",
          "name": "universityName",
          "type": "string"
        },
        {
          "internalType": "string",
          "name": "year",
          "type": "string"
        }
      ],
      "stateMutability": "view",
      "type": "function"
    },
    {
      "inputs": [],
      "name": "getDiplomasCount",
      "outputs": [
        {
          "internalType": "uint256",
          "name": "",
          "type": "uint256"
        }
      ],
      "stateMutability": "view",
      "type": "function"
    }
  ],
  "bytecode": "0x6080604052348015600f57600080fd5b50610aa68061001f6000396000f3fe608060405234801561001057600080fd5b50600436106100415760003560e01c806335dfc1c314610046578063391bd41114610079578063819e2fce14610095575b600080fd5b610060600480360381019061005b91906103f4565b6100b3565b60405161007094939291906104f2565b60405180910390f35b610093600480360381019061008e91906106ad565b6102ab565b005b61009d61039e565b6040516100aa9190610777565b60405180910390f35b600081815481106100c357600080fd5b90600052602060002090600402016000915090508060000160009054906101000a900473ffffffffffffffffffffffffffffffffffffffff169080600101805461010c906107c1565b80601f0160208091040260200160405190810160405280929190818152602001828054610138906107c1565b80156101855780601f1061015a57610100808354040283529160200191610185565b820191906000526020600020905b81548152906001019060200180831161016857829003601f168201915b50505050509080600201805461019a906107c1565b80601f01602080910402602001604051908101604052809291908181526020018280546101c6906107c1565b80156102135780601f106101e857610100808354040283529160200191610213565b820191906000526020600020905b8154815290600101906020018083116101f657829003601f168201915b505050505090806003018054610228906107c1565b80601f0160208091040260200160405190810160405280929190818152602001828054610254906107c1565b80156102a15780601f10610276576101008083540402835291602001916102a1565b820191906000526020600020905b81548152906001019060200180831161028457829003601f168201915b5050505050905084565b600060405180608001604052808673ffffffffffffffffffffffffffffffffffffffff16815260200185815260200184815260200183815250908060018154018082558091505060019003906000526020600020906004020160009091909190915060008201518160000160006101000a81548173ffffffffffffffffffffffffffffffffffffffff021916908373ffffffffffffffffffffffffffffffffffffffff1602179055506020820151816001019081610369919061099e565b50604082015181600201908161037f919061099e565b506060820151816003019081610395919061099e565b50505050505050565b60008080549050905090565b6000604051905090565b600080fd5b600080fd5b6000819050919050565b6103d1816103be565b81146103dc57600080fd5b50565b6000813590506103ee816103c8565b92915050565b60006020828403121561040a576104096103b4565b5b6000610418848285016103df565b91505092915050565b600073ffffffffffffffffffffffffffffffffffffffff82169050919050565b600061044c82610421565b9050919050565b61045c81610441565b82525050565b600081519050919050565b600082825260208201905092915050565b60005b8381101561049c578082015181840152602081019050610481565b60008484015250505050565b6000601f19601f8301169050919050565b60006104c482610462565b6104ce818561046d565b93506104de81856020860161047e565b6104e7816104a8565b840191505092915050565b60006080820190506105076000830187610453565b818103602083015261051981866104b9565b9050818103604083015261052d81856104b9565b9050818103606083015261054181846104b9565b905095945050505050565b61055581610441565b811461056057600080fd5b50565b6000813590506105728161054c565b92915050565b600080fd5b600080fd5b7f4e487b7100000000000000000000000000000000000000000000000000000000600052604160045260246000fd5b6105ba826104a8565b810181811067ffffffffffffffff821117156105d9576105d8610582565b5b80604052505050565b60006105ec6103aa565b90506105f882826105b1565b919050565b600067ffffffffffffffff82111561061857610617610582565b5b610621826104a8565b9050602081019050919050565b82818337600083830152505050565b600061065061064b846105fd565b6105e2565b90508281526020810184848401111561066c5761066b61057d565b5b61067784828561062e565b509392505050565b600082601f83011261069457610693610578565b5b81356106a484826020860161063d565b91505092915050565b600080600080608085870312156106c7576106c66103b4565b5b60006106d587828801610563565b945050602085013567ffffffffffffffff8111156106f6576106f56103b9565b5b6107028782880161067f565b935050604085013567ffffffffffffffff811115610723576107226103b9565b5b61072f8782880161067f565b925050606085013567ffffffffffffffff8111156107505761074f6103b9565b5b61075c8782880161067f565b91505092959194509250565b610771816103be565b82525050565b600060208201905061078c6000830184610768565b92915050565b7f4e487b7100000000000000000000000000000000000000000000000000000000600052602260045260246000fd5b600060028204905060018216806107d957607f821691505b6020821081036107ec576107eb610792565b5b50919050565b60008190508160005260206000209050919050565b60006020601f8301049050919050565b600082821b905092915050565b6000600883026108547fffffffffffffffffffffffffffffffffffffffffffffffffffffffffffffffff82610817565b61085e8683610817565b95508019841693508086168417925050509392505050565b6000819050919050565b600061089b610896610891846103be565b610876565b6103be565b9050919050565b6000819050919050565b6108b583610880565b6108c96108c1826108a2565b848454610824565b825550505050565b600090565b6108de6108d1565b6108e98184846108ac565b505050565b5b8181101561090d576109026000826108d6565b6001810190506108ef565b5050565b601f82111561095257610923816107f2565b61092c84610807565b8101602085101561093b578190505b61094f61094785610807565b8301826108ee565b50505b505050565b600082821c905092915050565b600061097560001984600802610957565b1980831691505092915050565b600061098e8383610964565b9150826002028217905092915050565b6109a782610462565b67ffffffffffffffff8111156109c0576109bf610582565b5b6109ca82546107c1565b6109d5828285610911565b600060209050601f831160018114610a0857600084156109f6578287015190505b610a008582610982565b865550610a68565b601f198416610a16866107f2565b60005b82811015610a3e57848901518255600182019150602085019450602081019050610a19565b86831015610a5b5784890151610a57601f891682610964565b8355505b6001600288020188555050505b50505050505056fea2646970667358221220bcef788e037214c689bb3d0c4b504f6bbf7d63046eae1f95a9f02529b83fbe0764736f6c634300081c0033",
  "linkReferences": {},
  "deployedLinkReferences": {}
}