{"contracts/ItContract.sol":{"ItContract":{"abi":[{"inputs":[{"internalType":"uint256","name":"_initialSupply","type":"uint256"}],"stateMutability":"nonpayable","type":"constructor"},{"anonymous":false,"inputs":[{"indexed":true,"internalType":"address","name":"from","type":"address"},{"indexed":true,"internalType":"address","name":"to","type":"address"},{"indexed":false,"internalType":"uint256","name":"value","type":"uint256"}],"name":"Transfer","type":"event"},{"inputs":[{"internalType":"address","name":"","type":"address"}],"name":"balanceOf","outputs":[{"internalType":"uint256","name":"","type":"uint256"}],"stateMutability":"view","type":"function"},{"inputs":[],"name":"decimals","outputs":[{"internalType":"uint8","name":"","type":"uint8"}],"stateMutability":"view","type":"function"},{"inputs":[],"name":"name","outputs":[{"internalType":"string","name":"","type":"string"}],"stateMutability":"view","type":"function"},{"inputs":[],"name":"symbol","outputs":[{"internalType":"string","name":"","type":"string"}],"stateMutability":"view","type":"function"},{"inputs":[],"name":"totalSupply","outputs":[{"internalType":"uint256","name":"","type":"uint256"}],"stateMutability":"view","type":"function"},{"inputs":[{"internalType":"address","name":"_to","type":"address"},{"internalType":"uint256","name":"_value","type":"uint256"}],"name":"transferTokens","outputs":[{"internalType":"bool","name":"success","type":"bool"}],"stateMutability":"nonpayable","type":"function"}],"evm":{"bytecode":{"linkReferences":{},"object":"60806040526040518060400160405280600681526020017f54696d4d6f7600000000000000000000000000000000000000000000000000008152506000908161004891906103a4565b506040518060400160405280600281526020017f544d0000000000000000000000000000000000000000000000000000000000008152506001908161008d91906103a4565b506012600260006101000a81548160ff021916908360ff1602179055503480156100b657600080fd5b50604051610ee5380380610ee583398181016040528101906100d891906104a7565b600260009054906101000a900460ff1660ff16600a6100f79190610636565b816101029190610681565b600381905550600354600460003373ffffffffffffffffffffffffffffffffffffffff1673ffffffffffffffffffffffffffffffffffffffff16815260200190815260200160002081905550506106c3565b600081519050919050565b7f4e487b7100000000000000000000000000000000000000000000000000000000600052604160045260246000fd5b7f4e487b7100000000000000000000000000000000000000000000000000000000600052602260045260246000fd5b600060028204905060018216806101d557607f821691505b6020821081036101e8576101e761018e565b5b50919050565b60008190508160005260206000209050919050565b60006020601f8301049050919050565b600082821b905092915050565b6000600883026102507fffffffffffffffffffffffffffffffffffffffffffffffffffffffffffffffff82610213565b61025a8683610213565b95508019841693508086168417925050509392505050565b6000819050919050565b6000819050919050565b60006102a161029c61029784610272565b61027c565b610272565b9050919050565b6000819050919050565b6102bb83610286565b6102cf6102c7826102a8565b848454610220565b825550505050565b600090565b6102e46102d7565b6102ef8184846102b2565b505050565b5b81811015610313576103086000826102dc565b6001810190506102f5565b5050565b601f82111561035857610329816101ee565b61033284610203565b81016020851015610341578190505b61035561034d85610203565b8301826102f4565b50505b505050565b600082821c905092915050565b600061037b6000198460080261035d565b1980831691505092915050565b6000610394838361036a565b9150826002028217905092915050565b6103ad82610154565b67ffffffffffffffff8111156103c6576103c561015f565b5b6103d082546101bd565b6103db828285610317565b600060209050601f83116001811461040e57600084156103fc578287015190505b6104068582610388565b86555061046e565b601f19841661041c866101ee565b60005b828110156104445784890151825560018201915060208501945060208101905061041f565b86831015610461578489015161045d601f89168261036a565b8355505b6001600288020188555050505b505050505050565b600080fd5b61048481610272565b811461048f57600080fd5b50565b6000815190506104a18161047b565b92915050565b6000602082840312156104bd576104bc610476565b5b60006104cb84828501610492565b91505092915050565b7f4e487b7100000000000000000000000000000000000000000000000000000000600052601160045260246000fd5b60008160011c9050919050565b6000808291508390505b600185111561055a57808604811115610536576105356104d4565b5b60018516156105455780820291505b808102905061055385610503565b945061051a565b94509492505050565b600082610573576001905061062f565b81610581576000905061062f565b816001811461059757600281146105a1576105d0565b600191505061062f565b60ff8411156105b3576105b26104d4565b5b8360020a9150848211156105ca576105c96104d4565b5b5061062f565b5060208310610133831016604e8410600b84101617156106055782820a905083811115610600576105ff6104d4565b5b61062f565b6106128484846001610510565b92509050818404811115610629576106286104d4565b5b81810290505b9392505050565b600061064182610272565b915061064c83610272565b92506106797fffffffffffffffffffffffffffffffffffffffffffffffffffffffffffffffff8484610563565b905092915050565b600061068c82610272565b915061069783610272565b92508282026106a581610272565b915082820484148315176106bc576106bb6104d4565b5b5092915050565b610813806106d26000396000f3fe608060405234801561001057600080fd5b50600436106100625760003560e01c806306fdde031461006757806318160ddd14610085578063313ce567146100a357806370a08231146100c157806395d89b41146100f1578063bec3fa171461010f575b600080fd5b61006f61013f565b60405161007c91906104bb565b60405180910390f35b61008d6101cd565b60405161009a91906104f6565b60405180910390f35b6100ab6101d3565b6040516100b8919061052d565b60405180910390f35b6100db60048036038101906100d691906105ab565b6101e6565b6040516100e891906104f6565b60405180910390f35b6100f96101fe565b60405161010691906104bb565b60405180910390f35b61012960048036038101906101249190610604565b61028c565b604051610136919061065f565b60405180910390f35b6000805461014c906106a9565b80601f0160208091040260200160405190810160405280929190818152602001828054610178906106a9565b80156101c55780601f1061019a576101008083540402835291602001916101c5565b820191906000526020600020905b8154815290600101906020018083116101a857829003601f168201915b505050505081565b60035481565b600260009054906101000a900460ff1681565b60046020528060005260406000206000915090505481565b6001805461020b906106a9565b80601f0160208091040260200160405190810160405280929190818152602001828054610237906106a9565b80156102845780601f1061025957610100808354040283529160200191610284565b820191906000526020600020905b81548152906001019060200180831161026757829003601f168201915b505050505081565b600081600460003373ffffffffffffffffffffffffffffffffffffffff1673ffffffffffffffffffffffffffffffffffffffff168152602001908152602001600020541015610310576040517f08c379a000000000000000000000000000000000000000000000000000000000815260040161030790610726565b60405180910390fd5b81600460003373ffffffffffffffffffffffffffffffffffffffff1673ffffffffffffffffffffffffffffffffffffffff168152602001908152602001600020600082825461035f9190610775565b9250508190555081600460008573ffffffffffffffffffffffffffffffffffffffff1673ffffffffffffffffffffffffffffffffffffffff16815260200190815260200160002060008282546103b591906107a9565b925050819055508273ffffffffffffffffffffffffffffffffffffffff163373ffffffffffffffffffffffffffffffffffffffff167fddf252ad1be2c89b69c2b068fc378daa952ba7f163c4a11628f55a4df523b3ef8460405161041991906104f6565b60405180910390a36001905092915050565b600081519050919050565b600082825260208201905092915050565b60005b8381101561046557808201518184015260208101905061044a565b60008484015250505050565b6000601f19601f8301169050919050565b600061048d8261042b565b6104978185610436565b93506104a7818560208601610447565b6104b081610471565b840191505092915050565b600060208201905081810360008301526104d58184610482565b905092915050565b6000819050919050565b6104f0816104dd565b82525050565b600060208201905061050b60008301846104e7565b92915050565b600060ff82169050919050565b61052781610511565b82525050565b6000602082019050610542600083018461051e565b92915050565b600080fd5b600073ffffffffffffffffffffffffffffffffffffffff82169050919050565b60006105788261054d565b9050919050565b6105888161056d565b811461059357600080fd5b50565b6000813590506105a58161057f565b92915050565b6000602082840312156105c1576105c0610548565b5b60006105cf84828501610596565b91505092915050565b6105e1816104dd565b81146105ec57600080fd5b50565b6000813590506105fe816105d8565b92915050565b6000806040838503121561061b5761061a610548565b5b600061062985828601610596565b925050602061063a858286016105ef565b9150509250929050565b60008115159050919050565b61065981610644565b82525050565b60006020820190506106746000830184610650565b92915050565b7f4e487b7100000000000000000000000000000000000000000000000000000000600052602260045260246000fd5b600060028204905060018216806106c157607f821691505b6020821081036106d4576106d361067a565b5b50919050565b7f496e73756666696369656e742062616c616e6365000000000000000000000000600082015250565b6000610710601483610436565b915061071b826106da565b602082019050919050565b6000602082019050818103600083015261073f81610703565b9050919050565b7f4e487b7100000000000000000000000000000000000000000000000000000000600052601160045260246000fd5b6000610780826104dd565b915061078b836104dd565b92508282039050818111156107a3576107a2610746565b5b92915050565b60006107b4826104dd565b91506107bf836104dd565b92508282019050808211156107d7576107d6610746565b5b9291505056fea2646970667358221220996283f578608ad57cb3e228817e7c6a0091208359ba10265d310b7612d990ea64736f6c634300081c0033","opcodes":"PUSH1 0x80 PUSH1 0x40 MSTORE PUSH1 0x40 MLOAD DUP1 PUSH1 0x40 ADD PUSH1 0x40 MSTORE DUP1 PUSH1 0x6 DUP2 MSTORE PUSH1 0x20 ADD PUSH32 0x54696D4D6F760000000000000000000000000000000000000000000000000000 DUP2 MSTORE POP PUSH1 0x0 SWAP1 DUP2 PUSH2 0x48 SWAP2 SWAP1 PUSH2 0x3A4 JUMP JUMPDEST POP PUSH1 0x40 MLOAD DUP1 PUSH1 0x40 ADD PUSH1 0x40 MSTORE DUP1 PUSH1 0x2 DUP2 MSTORE PUSH1 0x20 ADD PUSH32 0x544D000000000000000000000000000000000000000000000000000000000000 DUP2 MSTORE POP PUSH1 0x1 SWAP1 DUP2 PUSH2 0x8D SWAP2 SWAP1 PUSH2 0x3A4 JUMP JUMPDEST POP PUSH1 0x12 PUSH1 0x2 PUSH1 0x0 PUSH2 0x100 EXP DUP2 SLOAD DUP2 PUSH1 0xFF MUL NOT AND SWAP1 DUP4 PUSH1 0xFF AND MUL OR SWAP1 SSTORE POP CALLVALUE DUP1 ISZERO PUSH2 0xB6 JUMPI PUSH1 0x0 DUP1 REVERT JUMPDEST POP PUSH1 0x40 MLOAD PUSH2 0xEE5 CODESIZE SUB DUP1 PUSH2 0xEE5 DUP4 CODECOPY DUP2 DUP2 ADD PUSH1 0x40 MSTORE DUP2 ADD SWAP1 PUSH2 0xD8 SWAP2 SWAP1 PUSH2 0x4A7 JUMP JUMPDEST PUSH1 0x2 PUSH1 0x0 SWAP1 SLOAD SWAP1 PUSH2 0x100 EXP SWAP1 DIV PUSH1 0xFF AND PUSH1 0xFF AND PUSH1 0xA PUSH2 0xF7 SWAP2 SWAP1 PUSH2 0x636 JUMP JUMPDEST DUP2 PUSH2 0x102 SWAP2 SWAP1 PUSH2 0x681 JUMP JUMPDEST PUSH1 0x3 DUP2 SWAP1 SSTORE POP PUSH1 0x3 SLOAD PUSH1 0x4 PUSH1 0x0 CALLER PUSH20 0xFFFFFFFFFFFFFFFFFFFFFFFFFFFFFFFFFFFFFFFF AND PUSH20 0xFFFFFFFFFFFFFFFFFFFFFFFFFFFFFFFFFFFFFFFF AND DUP2 MSTORE PUSH1 0x20 ADD SWAP1 DUP2 MSTORE PUSH1 0x20 ADD PUSH1 0x0 KECCAK256 DUP2 SWAP1 SSTORE POP POP PUSH2 0x6C3 JUMP JUMPDEST PUSH1 0x0 DUP2 MLOAD SWAP1 POP SWAP2 SWAP1 POP JUMP JUMPDEST PUSH32 0x4E487B7100000000000000000000000000000000000000000000000000000000 PUSH1 0x0 MSTORE PUSH1 0x41 PUSH1 0x4 MSTORE PUSH1 0x24 PUSH1 0x0 REVERT JUMPDEST PUSH32 0x4E487B7100000000000000000000000000000000000000000000000000000000 PUSH1 0x0 MSTORE PUSH1 0x22 PUSH1 0x4 MSTORE PUSH1 0x24 PUSH1 0x0 REVERT JUMPDEST PUSH1 0x0 PUSH1 0x2 DUP3 DIV SWAP1 POP PUSH1 0x1 DUP3 AND DUP1 PUSH2 0x1D5 JUMPI PUSH1 0x7F DUP3 AND SWAP2 POP JUMPDEST PUSH1 0x20 DUP3 LT DUP2 SUB PUSH2 0x1E8 JUMPI PUSH2 0x1E7 PUSH2 0x18E JUMP JUMPDEST JUMPDEST POP SWAP2 SWAP1 POP JUMP JUMPDEST PUSH1 0x0 DUP2 SWAP1 POP DUP2 PUSH1 0x0 MSTORE PUSH1 0x20 PUSH1 0x0 KECCAK256 SWAP1 POP SWAP2 SWAP1 POP JUMP JUMPDEST PUSH1 0x0 PUSH1 0x20 PUSH1 0x1F DUP4 ADD DIV SWAP1 POP SWAP2 SWAP1 POP JUMP JUMPDEST PUSH1 0x0 DUP3 DUP3 SHL SWAP1 POP SWAP3 SWAP2 POP POP JUMP JUMPDEST PUSH1 0x0 PUSH1 0x8 DUP4 MUL PUSH2 0x250 PUSH32 0xFFFFFFFFFFFFFFFFFFFFFFFFFFFFFFFFFFFFFFFFFFFFFFFFFFFFFFFFFFFFFFFF DUP3 PUSH2 0x213 JUMP JUMPDEST PUSH2 0x25A DUP7 DUP4 PUSH2 0x213 JUMP JUMPDEST SWAP6 POP DUP1 NOT DUP5 AND SWAP4 POP DUP1 DUP7 AND DUP5 OR SWAP3 POP POP POP SWAP4 SWAP3 POP POP POP JUMP JUMPDEST PUSH1 0x0 DUP2 SWAP1 POP SWAP2 SWAP1 POP JUMP JUMPDEST PUSH1 0x0 DUP2 SWAP1 POP SWAP2 SWAP1 POP JUMP JUMPDEST PUSH1 0x0 PUSH2 0x2A1 PUSH2 0x29C PUSH2 0x297 DUP5 PUSH2 0x272 JUMP JUMPDEST PUSH2 0x27C JUMP JUMPDEST PUSH2 0x272 JUMP JUMPDEST SWAP1 POP SWAP2 SWAP1 POP JUMP JUMPDEST PUSH1 0x0 DUP2 SWAP1 POP SWAP2 SWAP1 POP JUMP JUMPDEST PUSH2 0x2BB DUP4 PUSH2 0x286 JUMP JUMPDEST PUSH2 0x2CF PUSH2 0x2C7 DUP3 PUSH2 0x2A8 JUMP JUMPDEST DUP5 DUP5 SLOAD PUSH2 0x220 JUMP JUMPDEST DUP3 SSTORE POP POP POP POP JUMP JUMPDEST PUSH1 0x0 SWAP1 JUMP JUMPDEST PUSH2 0x2E4 PUSH2 0x2D7 JUMP JUMPDEST PUSH2 0x2EF DUP2 DUP5 DUP5 PUSH2 0x2B2 JUMP JUMPDEST POP POP POP JUMP JUMPDEST JUMPDEST DUP2 DUP2 LT ISZERO PUSH2 0x313 JUMPI PUSH2 0x308 PUSH1 0x0 DUP3 PUSH2 0x2DC JUMP JUMPDEST PUSH1 0x1 DUP2 ADD SWAP1 POP PUSH2 0x2F5 JUMP JUMPDEST POP POP JUMP JUMPDEST PUSH1 0x1F DUP3 GT ISZERO PUSH2 0x358 JUMPI PUSH2 0x329 DUP2 PUSH2 0x1EE JUMP JUMPDEST PUSH2 0x332 DUP5 PUSH2 0x203 JUMP JUMPDEST DUP2 ADD PUSH1 0x20 DUP6 LT ISZERO PUSH2 0x341 JUMPI DUP2 SWAP1 POP JUMPDEST PUSH2 0x355 PUSH2 0x34D DUP6 PUSH2 0x203 JUMP JUMPDEST DUP4 ADD DUP3 PUSH2 0x2F4 JUMP JUMPDEST POP POP JUMPDEST POP POP POP JUMP JUMPDEST PUSH1 0x0 DUP3 DUP3 SHR SWAP1 POP SWAP3 SWAP2 POP POP JUMP JUMPDEST PUSH1 0x0 PUSH2 0x37B PUSH1 0x0 NOT DUP5 PUSH1 0x8 MUL PUSH2 0x35D JUMP JUMPDEST NOT DUP1 DUP4 AND SWAP2 POP POP SWAP3 SWAP2 POP POP JUMP JUMPDEST PUSH1 0x0 PUSH2 0x394 DUP4 DUP4 PUSH2 0x36A JUMP JUMPDEST SWAP2 POP DUP3 PUSH1 0x2 MUL DUP3 OR SWAP1 POP SWAP3 SWAP2 POP POP JUMP JUMPDEST PUSH2 0x3AD DUP3 PUSH2 0x154 JUMP JUMPDEST PUSH8 0xFFFFFFFFFFFFFFFF DUP2 GT ISZERO PUSH2 0x3C6 JUMPI PUSH2 0x3C5 PUSH2 0x15F JUMP JUMPDEST JUMPDEST PUSH2 0x3D0 DUP3 SLOAD PUSH2 0x1BD JUMP JUMPDEST PUSH2 0x3DB DUP3 DUP3 DUP6 PUSH2 0x317 JUMP JUMPDEST PUSH1 0x0 PUSH1 0x20 SWAP1 POP PUSH1 0x1F DUP4 GT PUSH1 0x1 DUP2 EQ PUSH2 0x40E JUMPI PUSH1 0x0 DUP5 ISZERO PUSH2 0x3FC JUMPI DUP3 DUP8 ADD MLOAD SWAP1 POP JUMPDEST PUSH2 0x406 DUP6 DUP3 PUSH2 0x388 JUMP JUMPDEST DUP7 SSTORE POP PUSH2 0x46E JUMP JUMPDEST PUSH1 0x1F NOT DUP5 AND PUSH2 0x41C DUP7 PUSH2 0x1EE JUMP JUMPDEST PUSH1 0x0 JUMPDEST DUP3 DUP2 LT ISZERO PUSH2 0x444 JUMPI DUP5 DUP10 ADD MLOAD DUP3 SSTORE PUSH1 0x1 DUP3 ADD SWAP2 POP PUSH1 0x20 DUP6 ADD SWAP5 POP PUSH1 0x20 DUP2 ADD SWAP1 POP PUSH2 0x41F JUMP JUMPDEST DUP7 DUP4 LT ISZERO PUSH2 0x461 JUMPI DUP5 DUP10 ADD MLOAD PUSH2 0x45D PUSH1 0x1F DUP10 AND DUP3 PUSH2 0x36A JUMP JUMPDEST DUP4 SSTORE POP JUMPDEST PUSH1 0x1 PUSH1 0x2 DUP9 MUL ADD DUP9 SSTORE POP POP POP JUMPDEST POP POP POP POP POP POP JUMP JUMPDEST PUSH1 0x0 DUP1 REVERT JUMPDEST PUSH2 0x484 DUP2 PUSH2 0x272 JUMP JUMPDEST DUP2 EQ PUSH2 0x48F JUMPI PUSH1 0x0 DUP1 REVERT JUMPDEST POP JUMP JUMPDEST PUSH1 0x0 DUP2 MLOAD SWAP1 POP PUSH2 0x4A1 DUP2 PUSH2 0x47B JUMP JUMPDEST SWAP3 SWAP2 POP POP JUMP JUMPDEST PUSH1 0x0 PUSH1 0x20 DUP3 DUP5 SUB SLT ISZERO PUSH2 0x4BD JUMPI PUSH2 0x4BC PUSH2 0x476 JUMP JUMPDEST JUMPDEST PUSH1 0x0 PUSH2 0x4CB DUP5 DUP3 DUP6 ADD PUSH2 0x492 JUMP JUMPDEST SWAP2 POP POP SWAP3 SWAP2 POP POP JUMP JUMPDEST PUSH32 0x4E487B7100000000000000000000000000000000000000000000000000000000 PUSH1 0x0 MSTORE PUSH1 0x11 PUSH1 0x4 MSTORE PUSH1 0x24 PUSH1 0x0 REVERT JUMPDEST PUSH1 0x0 DUP2 PUSH1 0x1 SHR SWAP1 POP SWAP2 SWAP1 POP JUMP JUMPDEST PUSH1 0x0 DUP1 DUP3 SWAP2 POP DUP4 SWAP1 POP JUMPDEST PUSH1 0x1 DUP6 GT ISZERO PUSH2 0x55A JUMPI DUP1 DUP7 DIV DUP2 GT ISZERO PUSH2 0x536 JUMPI PUSH2 0x535 PUSH2 0x4D4 JUMP JUMPDEST JUMPDEST PUSH1 0x1 DUP6 AND ISZERO PUSH2 0x545 JUMPI DUP1 DUP3 MUL SWAP2 POP JUMPDEST DUP1 DUP2 MUL SWAP1 POP PUSH2 0x553 DUP6 PUSH2 0x503 JUMP JUMPDEST SWAP5 POP PUSH2 0x51A JUMP JUMPDEST SWAP5 POP SWAP5 SWAP3 POP POP POP JUMP JUMPDEST PUSH1 0x0 DUP3 PUSH2 0x573 JUMPI PUSH1 0x1 SWAP1 POP PUSH2 0x62F JUMP JUMPDEST DUP2 PUSH2 0x581 JUMPI PUSH1 0x0 SWAP1 POP PUSH2 0x62F JUMP JUMPDEST DUP2 PUSH1 0x1 DUP2 EQ PUSH2 0x597 JUMPI PUSH1 0x2 DUP2 EQ PUSH2 0x5A1 JUMPI PUSH2 0x5D0 JUMP JUMPDEST PUSH1 0x1 SWAP2 POP POP PUSH2 0x62F JUMP JUMPDEST PUSH1 0xFF DUP5 GT ISZERO PUSH2 0x5B3 JUMPI PUSH2 0x5B2 PUSH2 0x4D4 JUMP JUMPDEST JUMPDEST DUP4 PUSH1 0x2 EXP SWAP2 POP DUP5 DUP3 GT ISZERO PUSH2 0x5CA JUMPI PUSH2 0x5C9 PUSH2 0x4D4 JUMP JUMPDEST JUMPDEST POP PUSH2 0x62F JUMP JUMPDEST POP PUSH1 0x20 DUP4 LT PUSH2 0x133 DUP4 LT AND PUSH1 0x4E DUP5 LT PUSH1 0xB DUP5 LT AND OR ISZERO PUSH2 0x605 JUMPI DUP3 DUP3 EXP SWAP1 POP DUP4 DUP2 GT ISZERO PUSH2 0x600 JUMPI PUSH2 0x5FF PUSH2 0x4D4 JUMP JUMPDEST JUMPDEST PUSH2 0x62F JUMP JUMPDEST PUSH2 0x612 DUP5 DUP5 DUP5 PUSH1 0x1 PUSH2 0x510 JUMP JUMPDEST SWAP3 POP SWAP1 POP DUP2 DUP5 DIV DUP2 GT ISZERO PUSH2 0x629 JUMPI PUSH2 0x628 PUSH2 0x4D4 JUMP JUMPDEST JUMPDEST DUP2 DUP2 MUL SWAP1 POP JUMPDEST SWAP4 SWAP3 POP POP POP JUMP JUMPDEST PUSH1 0x0 PUSH2 0x641 DUP3 PUSH2 0x272 JUMP JUMPDEST SWAP2 POP PUSH2 0x64C DUP4 PUSH2 0x272 JUMP JUMPDEST SWAP3 POP PUSH2 0x679 PUSH32 0xFFFFFFFFFFFFFFFFFFFFFFFFFFFFFFFFFFFFFFFFFFFFFFFFFFFFFFFFFFFFFFFF DUP5 DUP5 PUSH2 0x563 JUMP JUMPDEST SWAP1 POP SWAP3 SWAP2 POP POP JUMP JUMPDEST PUSH1 0x0 PUSH2 0x68C DUP3 PUSH2 0x272 JUMP JUMPDEST SWAP2 POP PUSH2 0x697 DUP4 PUSH2 0x272 JUMP JUMPDEST SWAP3 POP DUP3 DUP3 MUL PUSH2 0x6A5 DUP2 PUSH2 0x272 JUMP JUMPDEST SWAP2 POP DUP3 DUP3 DIV DUP5 EQ DUP4 ISZERO OR PUSH2 0x6BC JUMPI PUSH2 0x6BB PUSH2 0x4D4 JUMP JUMPDEST JUMPDEST POP SWAP3 SWAP2 POP POP JUMP JUMPDEST PUSH2 0x813 DUP1 PUSH2 0x6D2 PUSH1 0x0 CODECOPY PUSH1 0x0 RETURN INVALID PUSH1 0x80 PUSH1 0x40 MSTORE CALLVALUE DUP1 ISZERO PUSH2 0x10 JUMPI PUSH1 0x0 DUP1 REVERT JUMPDEST POP PUSH1 0x4 CALLDATASIZE LT PUSH2 0x62 JUMPI PUSH1 0x0 CALLDATALOAD PUSH1 0xE0 SHR DUP1 PUSH4 0x6FDDE03 EQ PUSH2 0x67 JUMPI DUP1 PUSH4 0x18160DDD EQ PUSH2 0x85 JUMPI DUP1 PUSH4 0x313CE567 EQ PUSH2 0xA3 JUMPI DUP1 PUSH4 0x70A08231 EQ PUSH2 0xC1 JUMPI DUP1 PUSH4 0x95D89B41 EQ PUSH2 0xF1 JUMPI DUP1 PUSH4 0xBEC3FA17 EQ PUSH2 0x10F JUMPI JUMPDEST PUSH1 0x0 DUP1 REVERT JUMPDEST PUSH2 0x6F PUSH2 0x13F JUMP JUMPDEST PUSH1 0x40 MLOAD PUSH2 0x7C SWAP2 SWAP1 PUSH2 0x4BB JUMP JUMPDEST PUSH1 0x40 MLOAD DUP1 SWAP2 SUB SWAP1 RETURN JUMPDEST PUSH2 0x8D PUSH2 0x1CD JUMP JUMPDEST PUSH1 0x40 MLOAD PUSH2 0x9A SWAP2 SWAP1 PUSH2 0x4F6 JUMP JUMPDEST PUSH1 0x40 MLOAD DUP1 SWAP2 SUB SWAP1 RETURN JUMPDEST PUSH2 0xAB PUSH2 0x1D3 JUMP JUMPDEST PUSH1 0x40 MLOAD PUSH2 0xB8 SWAP2 SWAP1 PUSH2 0x52D JUMP JUMPDEST PUSH1 0x40 MLOAD DUP1 SWAP2 SUB SWAP1 RETURN JUMPDEST PUSH2 0xDB PUSH1 0x4 DUP1 CALLDATASIZE SUB DUP2 ADD SWAP1 PUSH2 0xD6 SWAP2 SWAP1 PUSH2 0x5AB JUMP JUMPDEST PUSH2 0x1E6 JUMP JUMPDEST PUSH1 0x40 MLOAD PUSH2 0xE8 SWAP2 SWAP1 PUSH2 0x4F6 JUMP JUMPDEST PUSH1 0x40 MLOAD DUP1 SWAP2 SUB SWAP1 RETURN JUMPDEST PUSH2 0xF9 PUSH2 0x1FE JUMP JUMPDEST PUSH1 0x40 MLOAD PUSH2 0x106 SWAP2 SWAP1 PUSH2 0x4BB JUMP JUMPDEST PUSH1 0x40 MLOAD DUP1 SWAP2 SUB SWAP1 RETURN JUMPDEST PUSH2 0x129 PUSH1 0x4 DUP1 CALLDATASIZE SUB DUP2 ADD SWAP1 PUSH2 0x124 SWAP2 SWAP1 PUSH2 0x604 JUMP JUMPDEST PUSH2 0x28C JUMP JUMPDEST PUSH1 0x40 MLOAD PUSH2 0x136 SWAP2 SWAP1 PUSH2 0x65F JUMP JUMPDEST PUSH1 0x40 MLOAD DUP1 SWAP2 SUB SWAP1 RETURN JUMPDEST PUSH1 0x0 DUP1 SLOAD PUSH2 0x14C SWAP1 PUSH2 0x6A9 JUMP JUMPDEST DUP1 PUSH1 0x1F ADD PUSH1 0x20 DUP1 SWAP2 DIV MUL PUSH1 0x20 ADD PUSH1 0x40 MLOAD SWAP1 DUP2 ADD PUSH1 0x40 MSTORE DUP1 SWAP3 SWAP2 SWAP1 DUP2 DUP2 MSTORE PUSH1 0x20 ADD DUP3 DUP1 SLOAD PUSH2 0x178 SWAP1 PUSH2 0x6A9 JUMP JUMPDEST DUP1 ISZERO PUSH2 0x1C5 JUMPI DUP1 PUSH1 0x1F LT PUSH2 0x19A JUMPI PUSH2 0x100 DUP1 DUP4 SLOAD DIV MUL DUP4 MSTORE SWAP2 PUSH1 0x20 ADD SWAP2 PUSH2 0x1C5 JUMP JUMPDEST DUP3 ADD SWAP2 SWAP1 PUSH1 0x0 MSTORE PUSH1 0x20 PUSH1 0x0 KECCAK256 SWAP1 JUMPDEST DUP2 SLOAD DUP2 MSTORE SWAP1 PUSH1 0x1 ADD SWAP1 PUSH1 0x20 ADD DUP1 DUP4 GT PUSH2 0x1A8 JUMPI DUP3 SWAP1 SUB PUSH1 0x1F AND DUP3 ADD SWAP2 JUMPDEST POP POP POP POP POP DUP2 JUMP JUMPDEST PUSH1 0x3 SLOAD DUP2 JUMP JUMPDEST PUSH1 0x2 PUSH1 0x0 SWAP1 SLOAD SWAP1 PUSH2 0x100 EXP SWAP1 DIV PUSH1 0xFF AND DUP2 JUMP JUMPDEST PUSH1 0x4 PUSH1 0x20 MSTORE DUP1 PUSH1 0x0 MSTORE PUSH1 0x40 PUSH1 0x0 KECCAK256 PUSH1 0x0 SWAP2 POP SWAP1 POP SLOAD DUP2 JUMP JUMPDEST PUSH1 0x1 DUP1 SLOAD PUSH2 0x20B SWAP1 PUSH2 0x6A9 JUMP JUMPDEST DUP1 PUSH1 0x1F ADD PUSH1 0x20 DUP1 SWAP2 DIV MUL PUSH1 0x20 ADD PUSH1 0x40 MLOAD SWAP1 DUP2 ADD PUSH1 0x40 MSTORE DUP1 SWAP3 SWAP2 SWAP1 DUP2 DUP2 MSTORE PUSH1 0x20 ADD DUP3 DUP1 SLOAD PUSH2 0x237 SWAP1 PUSH2 0x6A9 JUMP JUMPDEST DUP1 ISZERO PUSH2 0x284 JUMPI DUP1 PUSH1 0x1F LT PUSH2 0x259 JUMPI PUSH2 0x100 DUP1 DUP4 SLOAD DIV MUL DUP4 MSTORE SWAP2 PUSH1 0x20 ADD SWAP2 PUSH2 0x284 JUMP JUMPDEST DUP3 ADD SWAP2 SWAP1 PUSH1 0x0 MSTORE PUSH1 0x20 PUSH1 0x0 KECCAK256 SWAP1 JUMPDEST DUP2 SLOAD DUP2 MSTORE SWAP1 PUSH1 0x1 ADD SWAP1 PUSH1 0x20 ADD DUP1 DUP4 GT PUSH2 0x267 JUMPI DUP3 SWAP1 SUB PUSH1 0x1F AND DUP3 ADD SWAP2 JUMPDEST POP POP POP POP POP DUP2 JUMP JUMPDEST PUSH1 0x0 DUP2 PUSH1 0x4 PUSH1 0x0 CALLER PUSH20 0xFFFFFFFFFFFFFFFFFFFFFFFFFFFFFFFFFFFFFFFF AND PUSH20 0xFFFFFFFFFFFFFFFFFFFFFFFFFFFFFFFFFFFFFFFF AND DUP2 MSTORE PUSH1 0x20 ADD SWAP1 DUP2 MSTORE PUSH1 0x20 ADD PUSH1 0x0 KECCAK256 SLOAD LT ISZERO PUSH2 0x310 JUMPI PUSH1 0x40 MLOAD PUSH32 0x8C379A000000000000000000000000000000000000000000000000000000000 DUP2 MSTORE PUSH1 0x4 ADD PUSH2 0x307 SWAP1 PUSH2 0x726 JUMP JUMPDEST PUSH1 0x40 MLOAD DUP1 SWAP2 SUB SWAP1 REVERT JUMPDEST DUP2 PUSH1 0x4 PUSH1 0x0 CALLER PUSH20 0xFFFFFFFFFFFFFFFFFFFFFFFFFFFFFFFFFFFFFFFF AND PUSH20 0xFFFFFFFFFFFFFFFFFFFFFFFFFFFFFFFFFFFFFFFF AND DUP2 MSTORE PUSH1 0x20 ADD SWAP1 DUP2 MSTORE PUSH1 0x20 ADD PUSH1 0x0 KECCAK256 PUSH1 0x0 DUP3 DUP3 SLOAD PUSH2 0x35F SWAP2 SWAP1 PUSH2 0x775 JUMP JUMPDEST SWAP3 POP POP DUP2 SWAP1 SSTORE POP DUP2 PUSH1 0x4 PUSH1 0x0 DUP6 PUSH20 0xFFFFFFFFFFFFFFFFFFFFFFFFFFFFFFFFFFFFFFFF AND PUSH20 0xFFFFFFFFFFFFFFFFFFFFFFFFFFFFFFFFFFFFFFFF AND DUP2 MSTORE PUSH1 0x20 ADD SWAP1 DUP2 MSTORE PUSH1 0x20 ADD PUSH1 0x0 KECCAK256 PUSH1 0x0 DUP3 DUP3 SLOAD PUSH2 0x3B5 SWAP2 SWAP1 PUSH2 0x7A9 JUMP JUMPDEST SWAP3 POP POP DUP2 SWAP1 SSTORE POP DUP3 PUSH20 0xFFFFFFFFFFFFFFFFFFFFFFFFFFFFFFFFFFFFFFFF AND CALLER PUSH20 0xFFFFFFFFFFFFFFFFFFFFFFFFFFFFFFFFFFFFFFFF AND PUSH32 0xDDF252AD1BE2C89B69C2B068FC378DAA952BA7F163C4A11628F55A4DF523B3EF DUP5 PUSH1 0x40 MLOAD PUSH2 0x419 SWAP2 SWAP1 PUSH2 0x4F6 JUMP JUMPDEST PUSH1 0x40 MLOAD DUP1 SWAP2 SUB SWAP1 LOG3 PUSH1 0x1 SWAP1 POP SWAP3 SWAP2 POP POP JUMP JUMPDEST PUSH1 0x0 DUP2 MLOAD SWAP1 POP SWAP2 SWAP1 POP JUMP JUMPDEST PUSH1 0x0 DUP3 DUP3 MSTORE PUSH1 0x20 DUP3 ADD SWAP1 POP SWAP3 SWAP2 POP POP JUMP JUMPDEST PUSH1 0x0 JUMPDEST DUP4 DUP2 LT ISZERO PUSH2 0x465 JUMPI DUP1 DUP3 ADD MLOAD DUP2 DUP5 ADD MSTORE PUSH1 0x20 DUP2 ADD SWAP1 POP PUSH2 0x44A JUMP JUMPDEST PUSH1 0x0 DUP5 DUP5 ADD MSTORE POP POP POP POP JUMP JUMPDEST PUSH1 0x0 PUSH1 0x1F NOT PUSH1 0x1F DUP4 ADD AND SWAP1 POP SWAP2 SWAP1 POP JUMP JUMPDEST PUSH1 0x0 PUSH2 0x48D DUP3 PUSH2 0x42B JUMP JUMPDEST PUSH2 0x497 DUP2 DUP6 PUSH2 0x436 JUMP JUMPDEST SWAP4 POP PUSH2 0x4A7 DUP2 DUP6 PUSH1 0x20 DUP7 ADD PUSH2 0x447 JUMP JUMPDEST PUSH2 0x4B0 DUP2 PUSH2 0x471 JUMP JUMPDEST DUP5 ADD SWAP2 POP POP SWAP3 SWAP2 POP POP JUMP JUMPDEST PUSH1 0x0 PUSH1 0x20 DUP3 ADD SWAP1 POP DUP2 DUP2 SUB PUSH1 0x0 DUP4 ADD MSTORE PUSH2 0x4D5 DUP2 DUP5 PUSH2 0x482 JUMP JUMPDEST SWAP1 POP SWAP3 SWAP2 POP POP JUMP JUMPDEST PUSH1 0x0 DUP2 SWAP1 POP SWAP2 SWAP1 POP JUMP JUMPDEST PUSH2 0x4F0 DUP2 PUSH2 0x4DD JUMP JUMPDEST DUP3 MSTORE POP POP JUMP JUMPDEST PUSH1 0x0 PUSH1 0x20 DUP3 ADD SWAP1 POP PUSH2 0x50B PUSH1 0x0 DUP4 ADD DUP5 PUSH2 0x4E7 JUMP JUMPDEST SWAP3 SWAP2 POP POP JUMP JUMPDEST PUSH1 0x0 PUSH1 0xFF DUP3 AND SWAP1 POP SWAP2 SWAP1 POP JUMP JUMPDEST PUSH2 0x527 DUP2 PUSH2 0x511 JUMP JUMPDEST DUP3 MSTORE POP POP JUMP JUMPDEST PUSH1 0x0 PUSH1 0x20 DUP3 ADD SWAP1 POP PUSH2 0x542 PUSH1 0x0 DUP4 ADD DUP5 PUSH2 0x51E JUMP JUMPDEST SWAP3 SWAP2 POP POP JUMP JUMPDEST PUSH1 0x0 DUP1 REVERT JUMPDEST PUSH1 0x0 PUSH20 0xFFFFFFFFFFFFFFFFFFFFFFFFFFFFFFFFFFFFFFFF DUP3 AND SWAP1 POP SWAP2 SWAP1 POP JUMP JUMPDEST PUSH1 0x0 PUSH2 0x578 DUP3 PUSH2 0x54D JUMP JUMPDEST SWAP1 POP SWAP2 SWAP1 POP JUMP JUMPDEST PUSH2 0x588 DUP2 PUSH2 0x56D JUMP JUMPDEST DUP2 EQ PUSH2 0x593 JUMPI PUSH1 0x0 DUP1 REVERT JUMPDEST POP JUMP JUMPDEST PUSH1 0x0 DUP2 CALLDATALOAD SWAP1 POP PUSH2 0x5A5 DUP2 PUSH2 0x57F JUMP JUMPDEST SWAP3 SWAP2 POP POP JUMP JUMPDEST PUSH1 0x0 PUSH1 0x20 DUP3 DUP5 SUB SLT ISZERO PUSH2 0x5C1 JUMPI PUSH2 0x5C0 PUSH2 0x548 JUMP JUMPDEST JUMPDEST PUSH1 0x0 PUSH2 0x5CF DUP5 DUP3 DUP6 ADD PUSH2 0x596 JUMP JUMPDEST SWAP2 POP POP SWAP3 SWAP2 POP POP JUMP JUMPDEST PUSH2 0x5E1 DUP2 PUSH2 0x4DD JUMP JUMPDEST DUP2 EQ PUSH2 0x5EC JUMPI PUSH1 0x0 DUP1 REVERT JUMPDEST POP JUMP JUMPDEST PUSH1 0x0 DUP2 CALLDATALOAD SWAP1 POP PUSH2 0x5FE DUP2 PUSH2 0x5D8 JUMP JUMPDEST SWAP3 SWAP2 POP POP JUMP JUMPDEST PUSH1 0x0 DUP1 PUSH1 0x40 DUP4 DUP6 SUB SLT ISZERO PUSH2 0x61B JUMPI PUSH2 0x61A PUSH2 0x548 JUMP JUMPDEST JUMPDEST PUSH1 0x0 PUSH2 0x629 DUP6 DUP3 DUP7 ADD PUSH2 0x596 JUMP JUMPDEST SWAP3 POP POP PUSH1 0x20 PUSH2 0x63A DUP6 DUP3 DUP7 ADD PUSH2 0x5EF JUMP JUMPDEST SWAP2 POP POP SWAP3 POP SWAP3 SWAP1 POP JUMP JUMPDEST PUSH1 0x0 DUP2 ISZERO ISZERO SWAP1 POP SWAP2 SWAP1 POP JUMP JUMPDEST PUSH2 0x659 DUP2 PUSH2 0x644 JUMP JUMPDEST DUP3 MSTORE POP POP JUMP JUMPDEST PUSH1 0x0 PUSH1 0x20 DUP3 ADD SWAP1 POP PUSH2 0x674 PUSH1 0x0 DUP4 ADD DUP5 PUSH2 0x650 JUMP JUMPDEST SWAP3 SWAP2 POP POP JUMP JUMPDEST PUSH32 0x4E487B7100000000000000000000000000000000000000000000000000000000 PUSH1 0x0 MSTORE PUSH1 0x22 PUSH1 0x4 MSTORE PUSH1 0x24 PUSH1 0x0 REVERT JUMPDEST PUSH1 0x0 PUSH1 0x2 DUP3 DIV SWAP1 POP PUSH1 0x1 DUP3 AND DUP1 PUSH2 0x6C1 JUMPI PUSH1 0x7F DUP3 AND SWAP2 POP JUMPDEST PUSH1 0x20 DUP3 LT DUP2 SUB PUSH2 0x6D4 JUMPI PUSH2 0x6D3 PUSH2 0x67A JUMP JUMPDEST JUMPDEST POP SWAP2 SWAP1 POP JUMP JUMPDEST PUSH32 0x496E73756666696369656E742062616C616E6365000000000000000000000000 PUSH1 0x0 DUP3 ADD MSTORE POP JUMP JUMPDEST PUSH1 0x0 PUSH2 0x710 PUSH1 0x14 DUP4 PUSH2 0x436 JUMP JUMPDEST SWAP2 POP PUSH2 0x71B DUP3 PUSH2 0x6DA JUMP JUMPDEST PUSH1 0x20 DUP3 ADD SWAP1 POP SWAP2 SWAP1 POP JUMP JUMPDEST PUSH1 0x0 PUSH1 0x20 DUP3 ADD SWAP1 POP DUP2 DUP2 SUB PUSH1 0x0 DUP4 ADD MSTORE PUSH2 0x73F DUP2 PUSH2 0x703 JUMP JUMPDEST SWAP1 POP SWAP2 SWAP1 POP JUMP JUMPDEST PUSH32 0x4E487B7100000000000000000000000000000000000000000000000000000000 PUSH1 0x0 MSTORE PUSH1 0x11 PUSH1 0x4 MSTORE PUSH1 0x24 PUSH1 0x0 REVERT JUMPDEST PUSH1 0x0 PUSH2 0x780 DUP3 PUSH2 0x4DD JUMP JUMPDEST SWAP2 POP PUSH2 0x78B DUP4 PUSH2 0x4DD JUMP JUMPDEST SWAP3 POP DUP3 DUP3 SUB SWAP1 POP DUP2 DUP2 GT ISZERO PUSH2 0x7A3 JUMPI PUSH2 0x7A2 PUSH2 0x746 JUMP JUMPDEST JUMPDEST SWAP3 SWAP2 POP POP JUMP JUMPDEST PUSH1 0x0 PUSH2 0x7B4 DUP3 PUSH2 0x4DD JUMP JUMPDEST SWAP2 POP PUSH2 0x7BF DUP4 PUSH2 0x4DD JUMP JUMPDEST SWAP3 POP DUP3 DUP3 ADD SWAP1 POP DUP1 DUP3 GT ISZERO PUSH2 0x7D7 JUMPI PUSH2 0x7D6 PUSH2 0x746 JUMP JUMPDEST JUMPDEST SWAP3 SWAP2 POP POP JUMP INVALID LOG2 PUSH5 0x6970667358 0x22 SLT KECCAK256 SWAP10 PUSH3 0x83F578 PUSH1 0x8A 0xD5 PUSH29 0xB3E228817E7C6A0091208359BA10265D310B7612D990EA64736F6C6343 STOP ADDMOD SHR STOP CALLER "},"methodIdentifiers":{"balanceOf(address)":"70a08231","decimals()":"313ce567","name()":"06fdde03","symbol()":"95d89b41","totalSupply()":"18160ddd","transferTokens(address,uint256)":"bec3fa17"}}}}}