{
  "_format": "hh-sol-artifact-1",
  "contractName": "ItContract",
  "sourceName": "contracts/ItContract.sol",
  "abi": [
    {
      "inputs": [
        {
          "internalType": "string",
          "name": "_studentName",
          "type": "string"
        },
        {
          "internalType": "string",
          "name": "_universityName",
          "type": "string"
        },
        {
          "internalType": "uint256",
          "name": "_year",
          "type": "uint256"
        }
      ],
      "name": "addDiploma",
      "outputs": [],
      "stateMutability": "nonpayable",
      "type": "function"
    },
    {
      "inputs": [
        {
          "internalType": "uint256",
          "name": "",
          "type": "uint256"
        }
      ],
      "name": "diplomas",
      "outputs": [
        {
          "internalType": "string",
          "name": "studentName",
          "type": "string"
        },
        {
          "internalType": "string",
          "name": "universityName",
          "type": "string"
        },
        {
          "internalType": "uint256",
          "name": "year",
          "type": "uint256"
        }
      ],
      "stateMutability": "view",
      "type": "function"
    },
    {
      "inputs": [],
      "name": "getDiplomasCount",
      "outputs": [
        {
          "internalType": "uint256",
          "name": "",
          "type": "uint256"
        }
      ],
      "stateMutability": "view",
      "type": "function"
    }
  ],
  "bytecode": "0x6080604052348015600f57600080fd5b506108d58061001f6000396000f3fe608060405234801561001057600080fd5b50600436106100415760003560e01c806335dfc1c314610046578063819e2fce146100785780639ee4e3a114610096575b600080fd5b610060600480360381019061005b91906102d5565b6100b2565b60405161006f939291906103a1565b60405180910390f35b6100806101fc565b60405161008d91906103e6565b60405180910390f35b6100b060048036038101906100ab9190610536565b610208565b005b600081815481106100c257600080fd5b90600052602060002090600302016000915090508060000180546100e5906105f0565b80601f0160208091040260200160405190810160405280929190818152602001828054610111906105f0565b801561015e5780601f106101335761010080835404028352916020019161015e565b820191906000526020600020905b81548152906001019060200180831161014157829003601f168201915b505050505090806001018054610173906105f0565b80601f016020809104026020016040519081016040528092919081815260200182805461019f906105f0565b80156101ec5780601f106101c1576101008083540402835291602001916101ec565b820191906000526020600020905b8154815290600101906020018083116101cf57829003601f168201915b5050505050908060020154905083565b60008080549050905090565b60006040518060600160405280858152602001848152602001838152509080600181540180825580915050600190039060005260206000209060030201600090919091909150600082015181600001908161026391906107cd565b50602082015181600101908161027991906107cd565b50604082015181600201555050505050565b6000604051905090565b600080fd5b600080fd5b6000819050919050565b6102b28161029f565b81146102bd57600080fd5b50565b6000813590506102cf816102a9565b92915050565b6000602082840312156102eb576102ea610295565b5b60006102f9848285016102c0565b91505092915050565b600081519050919050565b600082825260208201905092915050565b60005b8381101561033c578082015181840152602081019050610321565b60008484015250505050565b6000601f19601f8301169050919050565b600061036482610302565b61036e818561030d565b935061037e81856020860161031e565b61038781610348565b840191505092915050565b61039b8161029f565b82525050565b600060608201905081810360008301526103bb8186610359565b905081810360208301526103cf8185610359565b90506103de6040830184610392565b949350505050565b60006020820190506103fb6000830184610392565b92915050565b600080fd5b600080fd5b7f4e487b7100000000000000000000000000000000000000000000000000000000600052604160045260246000fd5b61044382610348565b810181811067ffffffffffffffff821117156104625761046161040b565b5b80604052505050565b600061047561028b565b9050610481828261043a565b919050565b600067ffffffffffffffff8211156104a1576104a061040b565b5b6104aa82610348565b9050602081019050919050565b82818337600083830152505050565b60006104d96104d484610486565b61046b565b9050828152602081018484840111156104f5576104f4610406565b5b6105008482856104b7565b509392505050565b600082601f83011261051d5761051c610401565b5b813561052d8482602086016104c6565b91505092915050565b60008060006060848603121561054f5761054e610295565b5b600084013567ffffffffffffffff81111561056d5761056c61029a565b5b61057986828701610508565b935050602084013567ffffffffffffffff81111561059a5761059961029a565b5b6105a686828701610508565b92505060406105b7868287016102c0565b9150509250925092565b7f4e487b7100000000000000000000000000000000000000000000000000000000600052602260045260246000fd5b6000600282049050600182168061060857607f821691505b60208210810361061b5761061a6105c1565b5b50919050565b60008190508160005260206000209050919050565b60006020601f8301049050919050565b600082821b905092915050565b6000600883026106837fffffffffffffffffffffffffffffffffffffffffffffffffffffffffffffffff82610646565b61068d8683610646565b95508019841693508086168417925050509392505050565b6000819050919050565b60006106ca6106c56106c08461029f565b6106a5565b61029f565b9050919050565b6000819050919050565b6106e4836106af565b6106f86106f0826106d1565b848454610653565b825550505050565b600090565b61070d610700565b6107188184846106db565b505050565b5b8181101561073c57610731600082610705565b60018101905061071e565b5050565b601f8211156107815761075281610621565b61075b84610636565b8101602085101561076a578190505b61077e61077685610636565b83018261071d565b50505b505050565b600082821c905092915050565b60006107a460001984600802610786565b1980831691505092915050565b60006107bd8383610793565b9150826002028217905092915050565b6107d682610302565b67ffffffffffffffff8111156107ef576107ee61040b565b5b6107f982546105f0565b610804828285610740565b600060209050601f8311600181146108375760008415610825578287015190505b61082f85826107b1565b865550610897565b601f19841661084586610621565b60005b8281101561086d57848901518255600182019150602085019450602081019050610848565b8683101561088a5784890151610886601f891682610793565b8355505b6001600288020188555050505b50505050505056fea2646970667358221220b46398ba126950435de2725b3724471c227e2adaf5fcd004382ca9d02b60038864736f6c634300081c0033",
  "linkReferences": {},
  "deployedLinkReferences": {}
}